{
  "abi": [
    {
      "inputs": [
        {
          "internalType": "uint256",
          "name": "_skill",
          "type": "uint256"
        },
        {
          "internalType": "uint256",
          "name": "_candidate",
          "type": "uint256"
        }
      ],
      "name": "connectCandidateSkill",
      "outputs": [],
      "stateMutability": "nonpayable",
      "type": "function"
    },
    {
      "inputs": [
        {
          "internalType": "uint256",
          "name": "_skill",
          "type": "uint256"
        },
        {
          "internalType": "uint256",
          "name": "_candidate",
          "type": "uint256"
        }
      ],
      "name": "disconnectCandidateSkill",
      "outputs": [],
      "stateMutability": "nonpayable",
      "type": "function"
    },
    {
      "inputs": [
        {
          "internalType": "uint256",
          "name": "_skill",
          "type": "uint256"
        }
      ],
      "name": "getCandidatesThruSkill",
      "outputs": [
        {
          "internalType": "uint256[]",
          "name": "",
          "type": "uint256[]"
        }
      ],
      "stateMutability": "view",
      "type": "function"
    },
    {
      "inputs": [
        {
          "internalType": "uint256",
          "name": "_candidate",
          "type": "uint256"
        }
      ],
      "name": "getSkillsThruCandidate",
      "outputs": [
        {
          "internalType": "uint256[]",
          "name": "",
          "type": "uint256[]"
        }
      ],
      "stateMutability": "view",
      "type": "function"
    },
    {
      "inputs": [
        {
          "internalType": "uint256",
          "name": "_skill",
          "type": "uint256"
        },
        {
          "internalType": "uint256",
          "name": "_candidate",
          "type": "uint256"
        }
      ],
      "name": "isExistedCandidateSkill",
      "outputs": [
        {
          "internalType": "bool",
          "name": "",
          "type": "bool"
        }
      ],
      "stateMutability": "view",
      "type": "function"
    }
  ],
  "bytecode": "608060405234801561001057600080fd5b506104be806100206000396000f3fe608060405234801561001057600080fd5b50600436106100575760003560e01c806309319baa1461005c5780631cf67ec2146100715780634143e0a21461009957806368c6a0a9146100e2578063c65b42a514610102575b600080fd5b61006f61006a36600461039b565b610115565b005b61008461007f36600461039b565b610149565b60405190151581526020015b60405180910390f35b61006f6100a736600461039b565b600082815260016020818152604080842080548085018255908552828520018590559383528281529282208054918201815582529190200155565b6100f56100f03660046103bd565b610178565b60405161009091906103d6565b6100f56101103660046103bd565b6101da565b600082815260016020526040902061012d9082610238565b60008181526020819052604090206101459083610238565b5050565b60008281526001602052604081206101619083610288565b1561016e57506001610172565b5060005b92915050565b6000818152600160209081526040918290208054835181840281018401909452808452606093928301828280156101ce57602002820191906000526020600020905b8154815260200190600101908083116101ba575b50505050509050919050565b600081815260208181526040918290208054835181840281018401909452808452606093928301828280156101ce57602002820191906000526020600020908154815260200190600101908083116101ba5750505050509050919050565b60005b825481101561027157818382815481106102575761025761041a565b9060005260206000200154036102765761027183826102d2565b505050565b8061028081610446565b91505061023b565b60008083548110156102cb57828482815481106102a7576102a761041a565b9060005260206000200154036102c1576001915050610172565b6000915050610172565b5092915050565b815460009083906102e59060019061045f565b815481106102f5576102f561041a565b906000526020600020015490508282815481106103145761031461041a565b90600052602060002001548360018580549050610331919061045f565b815481106103415761034161041a565b9060005260206000200181905550808383815481106103625761036261041a565b90600052602060002001819055508280548061038057610380610472565b60019003818190600052602060002001600090559055505050565b600080604083850312156103ae57600080fd5b50508035926020909101359150565b6000602082840312156103cf57600080fd5b5035919050565b6020808252825182820181905260009190848201906040850190845b8181101561040e578351835292840192918401916001016103f2565b50909695505050505050565b634e487b7160e01b600052603260045260246000fd5b634e487b7160e01b600052601160045260246000fd5b60006001820161045857610458610430565b5060010190565b8181038181111561017257610172610430565b634e487b7160e01b600052603160045260246000fdfea2646970667358221220238438d387bf1c602e6742354d03d7cd8e47ea46341f4cbae3d6347fa7c21a8764736f6c63430008120033",
  "bytecodeSha1": "4ebcf695d720282cf411303e3e2412fbbb97a8df",
  "compiler": {
    "evm_version": "istanbul",
    "optimizer": {
      "enabled": true,
      "runs": 200
    },
    "version": "0.8.18+commit.87f61d96"
  },
  "contractName": "Candidate_SKill",
  "language": "Solidity",
  "natspec": {
    "custom:many-to-many-constraint": "Each candidate has skill(s) Each skill is learned by candidate(s)",
    "kind": "dev",
    "methods": {},
    "version": 1
  },
  "opcodes": "PUSH1 0x80 PUSH1 0x40 MSTORE CALLVALUE DUP1 ISZERO PUSH2 0x10 JUMPI PUSH1 0x0 DUP1 REVERT JUMPDEST POP PUSH1 0x4 CALLDATASIZE LT PUSH2 0x57 JUMPI PUSH1 0x0 CALLDATALOAD PUSH1 0xE0 SHR DUP1 PUSH4 0x9319BAA EQ PUSH2 0x5C JUMPI DUP1 PUSH4 0x1CF67EC2 EQ PUSH2 0x71 JUMPI DUP1 PUSH4 0x4143E0A2 EQ PUSH2 0x99 JUMPI DUP1 PUSH4 0x68C6A0A9 EQ PUSH2 0xE2 JUMPI DUP1 PUSH4 0xC65B42A5 EQ PUSH2 0x102 JUMPI JUMPDEST PUSH1 0x0 DUP1 REVERT JUMPDEST PUSH2 0x6F PUSH2 0x6A CALLDATASIZE PUSH1 0x4 PUSH2 0x39B JUMP JUMPDEST PUSH2 0x115 JUMP JUMPDEST STOP JUMPDEST PUSH2 0x84 PUSH2 0x7F CALLDATASIZE PUSH1 0x4 PUSH2 0x39B JUMP JUMPDEST PUSH2 0x149 JUMP JUMPDEST PUSH1 0x40 MLOAD SWAP1 ISZERO ISZERO DUP2 MSTORE PUSH1 0x20 ADD JUMPDEST PUSH1 0x40 MLOAD DUP1 SWAP2 SUB SWAP1 RETURN JUMPDEST PUSH2 0x6F PUSH2 0xA7 CALLDATASIZE PUSH1 0x4 PUSH2 0x39B JUMP JUMPDEST PUSH1 0x0 DUP3 DUP2 MSTORE PUSH1 0x1 PUSH1 0x20 DUP2 DUP2 MSTORE PUSH1 0x40 DUP1 DUP5 KECCAK256 DUP1 SLOAD DUP1 DUP6 ADD DUP3 SSTORE SWAP1 DUP6 MSTORE DUP3 DUP6 KECCAK256 ADD DUP6 SWAP1 SSTORE SWAP4 DUP4 MSTORE DUP3 DUP2 MSTORE SWAP3 DUP3 KECCAK256 DUP1 SLOAD SWAP2 DUP3 ADD DUP2 SSTORE DUP3 MSTORE SWAP2 SWAP1 KECCAK256 ADD SSTORE JUMP JUMPDEST PUSH2 0xF5 PUSH2 0xF0 CALLDATASIZE PUSH1 0x4 PUSH2 0x3BD JUMP JUMPDEST PUSH2 0x178 JUMP JUMPDEST PUSH1 0x40 MLOAD PUSH2 0x90 SWAP2 SWAP1 PUSH2 0x3D6 JUMP JUMPDEST PUSH2 0xF5 PUSH2 0x110 CALLDATASIZE PUSH1 0x4 PUSH2 0x3BD JUMP JUMPDEST PUSH2 0x1DA JUMP JUMPDEST PUSH1 0x0 DUP3 DUP2 MSTORE PUSH1 0x1 PUSH1 0x20 MSTORE PUSH1 0x40 SWAP1 KECCAK256 PUSH2 0x12D SWAP1 DUP3 PUSH2 0x238 JUMP JUMPDEST PUSH1 0x0 DUP2 DUP2 MSTORE PUSH1 0x20 DUP2 SWAP1 MSTORE PUSH1 0x40 SWAP1 KECCAK256 PUSH2 0x145 SWAP1 DUP4 PUSH2 0x238 JUMP JUMPDEST POP POP JUMP JUMPDEST PUSH1 0x0 DUP3 DUP2 MSTORE PUSH1 0x1 PUSH1 0x20 MSTORE PUSH1 0x40 DUP2 KECCAK256 PUSH2 0x161 SWAP1 DUP4 PUSH2 0x288 JUMP JUMPDEST ISZERO PUSH2 0x16E JUMPI POP PUSH1 0x1 PUSH2 0x172 JUMP JUMPDEST POP PUSH1 0x0 JUMPDEST SWAP3 SWAP2 POP POP JUMP JUMPDEST PUSH1 0x0 DUP2 DUP2 MSTORE PUSH1 0x1 PUSH1 0x20 SWAP1 DUP2 MSTORE PUSH1 0x40 SWAP2 DUP3 SWAP1 KECCAK256 DUP1 SLOAD DUP4 MLOAD DUP2 DUP5 MUL DUP2 ADD DUP5 ADD SWAP1 SWAP5 MSTORE DUP1 DUP5 MSTORE PUSH1 0x60 SWAP4 SWAP3 DUP4 ADD DUP3 DUP3 DUP1 ISZERO PUSH2 0x1CE JUMPI PUSH1 0x20 MUL DUP3 ADD SWAP2 SWAP1 PUSH1 0x0 MSTORE PUSH1 0x20 PUSH1 0x0 KECCAK256 SWAP1 JUMPDEST DUP2 SLOAD DUP2 MSTORE PUSH1 0x20 ADD SWAP1 PUSH1 0x1 ADD SWAP1 DUP1 DUP4 GT PUSH2 0x1BA JUMPI JUMPDEST POP POP POP POP POP SWAP1 POP SWAP2 SWAP1 POP JUMP JUMPDEST PUSH1 0x0 DUP2 DUP2 MSTORE PUSH1 0x20 DUP2 DUP2 MSTORE PUSH1 0x40 SWAP2 DUP3 SWAP1 KECCAK256 DUP1 SLOAD DUP4 MLOAD DUP2 DUP5 MUL DUP2 ADD DUP5 ADD SWAP1 SWAP5 MSTORE DUP1 DUP5 MSTORE PUSH1 0x60 SWAP4 SWAP3 DUP4 ADD DUP3 DUP3 DUP1 ISZERO PUSH2 0x1CE JUMPI PUSH1 0x20 MUL DUP3 ADD SWAP2 SWAP1 PUSH1 0x0 MSTORE PUSH1 0x20 PUSH1 0x0 KECCAK256 SWAP1 DUP2 SLOAD DUP2 MSTORE PUSH1 0x20 ADD SWAP1 PUSH1 0x1 ADD SWAP1 DUP1 DUP4 GT PUSH2 0x1BA JUMPI POP POP POP POP POP SWAP1 POP SWAP2 SWAP1 POP JUMP JUMPDEST PUSH1 0x0 JUMPDEST DUP3 SLOAD DUP2 LT ISZERO PUSH2 0x271 JUMPI DUP2 DUP4 DUP3 DUP2 SLOAD DUP2 LT PUSH2 0x257 JUMPI PUSH2 0x257 PUSH2 0x41A JUMP JUMPDEST SWAP1 PUSH1 0x0 MSTORE PUSH1 0x20 PUSH1 0x0 KECCAK256 ADD SLOAD SUB PUSH2 0x276 JUMPI PUSH2 0x271 DUP4 DUP3 PUSH2 0x2D2 JUMP JUMPDEST POP POP POP JUMP JUMPDEST DUP1 PUSH2 0x280 DUP2 PUSH2 0x446 JUMP JUMPDEST SWAP2 POP POP PUSH2 0x23B JUMP JUMPDEST PUSH1 0x0 DUP1 DUP4 SLOAD DUP2 LT ISZERO PUSH2 0x2CB JUMPI DUP3 DUP5 DUP3 DUP2 SLOAD DUP2 LT PUSH2 0x2A7 JUMPI PUSH2 0x2A7 PUSH2 0x41A JUMP JUMPDEST SWAP1 PUSH1 0x0 MSTORE PUSH1 0x20 PUSH1 0x0 KECCAK256 ADD SLOAD SUB PUSH2 0x2C1 JUMPI PUSH1 0x1 SWAP2 POP POP PUSH2 0x172 JUMP JUMPDEST PUSH1 0x0 SWAP2 POP POP PUSH2 0x172 JUMP JUMPDEST POP SWAP3 SWAP2 POP POP JUMP JUMPDEST DUP2 SLOAD PUSH1 0x0 SWAP1 DUP4 SWAP1 PUSH2 0x2E5 SWAP1 PUSH1 0x1 SWAP1 PUSH2 0x45F JUMP JUMPDEST DUP2 SLOAD DUP2 LT PUSH2 0x2F5 JUMPI PUSH2 0x2F5 PUSH2 0x41A JUMP JUMPDEST SWAP1 PUSH1 0x0 MSTORE PUSH1 0x20 PUSH1 0x0 KECCAK256 ADD SLOAD SWAP1 POP DUP3 DUP3 DUP2 SLOAD DUP2 LT PUSH2 0x314 JUMPI PUSH2 0x314 PUSH2 0x41A JUMP JUMPDEST SWAP1 PUSH1 0x0 MSTORE PUSH1 0x20 PUSH1 0x0 KECCAK256 ADD SLOAD DUP4 PUSH1 0x1 DUP6 DUP1 SLOAD SWAP1 POP PUSH2 0x331 SWAP2 SWAP1 PUSH2 0x45F JUMP JUMPDEST DUP2 SLOAD DUP2 LT PUSH2 0x341 JUMPI PUSH2 0x341 PUSH2 0x41A JUMP JUMPDEST SWAP1 PUSH1 0x0 MSTORE PUSH1 0x20 PUSH1 0x0 KECCAK256 ADD DUP2 SWAP1 SSTORE POP DUP1 DUP4 DUP4 DUP2 SLOAD DUP2 LT PUSH2 0x362 JUMPI PUSH2 0x362 PUSH2 0x41A JUMP JUMPDEST SWAP1 PUSH1 0x0 MSTORE PUSH1 0x20 PUSH1 0x0 KECCAK256 ADD DUP2 SWAP1 SSTORE POP DUP3 DUP1 SLOAD DUP1 PUSH2 0x380 JUMPI PUSH2 0x380 PUSH2 0x472 JUMP JUMPDEST PUSH1 0x1 SWAP1 SUB DUP2 DUP2 SWAP1 PUSH1 0x0 MSTORE PUSH1 0x20 PUSH1 0x0 KECCAK256 ADD PUSH1 0x0 SWAP1 SSTORE SWAP1 SSTORE POP POP POP JUMP JUMPDEST PUSH1 0x0 DUP1 PUSH1 0x40 DUP4 DUP6 SUB SLT ISZERO PUSH2 0x3AE JUMPI PUSH1 0x0 DUP1 REVERT JUMPDEST POP POP DUP1 CALLDATALOAD SWAP3 PUSH1 0x20 SWAP1 SWAP2 ADD CALLDATALOAD SWAP2 POP JUMP JUMPDEST PUSH1 0x0 PUSH1 0x20 DUP3 DUP5 SUB SLT ISZERO PUSH2 0x3CF JUMPI PUSH1 0x0 DUP1 REVERT JUMPDEST POP CALLDATALOAD SWAP2 SWAP1 POP JUMP JUMPDEST PUSH1 0x20 DUP1 DUP3 MSTORE DUP3 MLOAD DUP3 DUP3 ADD DUP2 SWAP1 MSTORE PUSH1 0x0 SWAP2 SWAP1 DUP5 DUP3 ADD SWAP1 PUSH1 0x40 DUP6 ADD SWAP1 DUP5 JUMPDEST DUP2 DUP2 LT ISZERO PUSH2 0x40E JUMPI DUP4 MLOAD DUP4 MSTORE SWAP3 DUP5 ADD SWAP3 SWAP2 DUP5 ADD SWAP2 PUSH1 0x1 ADD PUSH2 0x3F2 JUMP JUMPDEST POP SWAP1 SWAP7 SWAP6 POP POP POP POP POP POP JUMP JUMPDEST PUSH4 0x4E487B71 PUSH1 0xE0 SHL PUSH1 0x0 MSTORE PUSH1 0x32 PUSH1 0x4 MSTORE PUSH1 0x24 PUSH1 0x0 REVERT JUMPDEST PUSH4 0x4E487B71 PUSH1 0xE0 SHL PUSH1 0x0 MSTORE PUSH1 0x11 PUSH1 0x4 MSTORE PUSH1 0x24 PUSH1 0x0 REVERT JUMPDEST PUSH1 0x0 PUSH1 0x1 DUP3 ADD PUSH2 0x458 JUMPI PUSH2 0x458 PUSH2 0x430 JUMP JUMPDEST POP PUSH1 0x1 ADD SWAP1 JUMP JUMPDEST DUP2 DUP2 SUB DUP2 DUP2 GT ISZERO PUSH2 0x172 JUMPI PUSH2 0x172 PUSH2 0x430 JUMP JUMPDEST PUSH4 0x4E487B71 PUSH1 0xE0 SHL PUSH1 0x0 MSTORE PUSH1 0x31 PUSH1 0x4 MSTORE PUSH1 0x24 PUSH1 0x0 REVERT INVALID LOG2 PUSH5 0x6970667358 0x22 SLT KECCAK256 0x23 DUP5 CODESIZE 0xD3 DUP8 0xBF SHR PUSH1 0x2E PUSH8 0x42354D03D7CD8E47 0xEA CHAINID CALLVALUE 0x1F 0x4C 0xBA 0xE3 0xD6 CALLVALUE PUSH32 0xA7C21A8764736F6C634300081200330000000000000000000000000000000000 ",
  "sha1": "898ea9a151e2ce7c9ac6cd4b9542aafbbf43ffb9",
  "source": "// SPDX-License-Identifier: MIT\n\npragma solidity ^0.8.0;\nimport \"./library/UintArray.sol\";\n\n/**\n * @custom:many-to-many-constraint\n * Each candidate has skill(s)\n * Each skill is learned by candidate(s)\n */\n\ncontract Candidate_SKill {\n    using UintArray for uint[];\n    mapping(uint => uint[]) internal s_candidateToSkill;\n    mapping(uint => uint[]) internal s_skillToCandidate;\n\n    function connectCandidateSkill(uint _skill, uint _candidate) public {\n        s_skillToCandidate[_skill].push(_candidate);\n        s_candidateToSkill[_candidate].push(_skill);\n    }\n\n    function disconnectCandidateSkill(uint _skill, uint _candidate) public {\n        s_skillToCandidate[_skill].removeElement(_candidate);\n        s_candidateToSkill[_candidate].removeElement(_skill);\n    }\n\n    function isExistedCandidateSkill(\n        uint _skill,\n        uint _candidate\n    ) public view returns (bool) {\n        if (s_skillToCandidate[_skill].isElementExisted(_candidate)) {\n            return true;\n        }\n        return false;\n    }\n\n    function getSkillsThruCandidate(\n        uint _candidate\n    ) public view returns (uint[] memory) {\n        return s_candidateToSkill[_candidate];\n    }\n\n    function getCandidatesThruSkill(\n        uint _skill\n    ) public view returns (uint[] memory) {\n        return s_skillToCandidate[_skill];\n    }\n}\n",
  "sourcePath": "contracts/Candidate_Skill.sol",
  "type": "contract"
}