{
  "abi": [
    {
      "inputs": [
        {
          "internalType": "uint256",
          "name": "_candidate",
          "type": "uint256"
        },
        {
          "internalType": "uint256",
          "name": "_job",
          "type": "uint256"
        }
      ],
      "name": "connectJobCandidate",
      "outputs": [],
      "stateMutability": "nonpayable",
      "type": "function"
    },
    {
      "inputs": [
        {
          "internalType": "uint256",
          "name": "_candidate",
          "type": "uint256"
        },
        {
          "internalType": "uint256",
          "name": "_job",
          "type": "uint256"
        }
      ],
      "name": "disconnectJobCandidate",
      "outputs": [],
      "stateMutability": "nonpayable",
      "type": "function"
    },
    {
      "inputs": [
        {
          "internalType": "uint256",
          "name": "_id",
          "type": "uint256"
        }
      ],
      "name": "getCandidatesThruJob",
      "outputs": [
        {
          "internalType": "uint256[]",
          "name": "",
          "type": "uint256[]"
        }
      ],
      "stateMutability": "view",
      "type": "function"
    },
    {
      "inputs": [
        {
          "internalType": "uint256",
          "name": "_id",
          "type": "uint256"
        }
      ],
      "name": "getJobsThruCandidate",
      "outputs": [
        {
          "internalType": "uint256[]",
          "name": "",
          "type": "uint256[]"
        }
      ],
      "stateMutability": "view",
      "type": "function"
    },
    {
      "inputs": [
        {
          "internalType": "uint256",
          "name": "_candidate",
          "type": "uint256"
        },
        {
          "internalType": "uint256",
          "name": "_job",
          "type": "uint256"
        }
      ],
      "name": "isExistedJobCandidate",
      "outputs": [
        {
          "internalType": "bool",
          "name": "",
          "type": "bool"
        }
      ],
      "stateMutability": "view",
      "type": "function"
    }
  ],
  "bytecode": "608060405234801561001057600080fd5b506104b0806100206000396000f3fe608060405234801561001057600080fd5b50600436106100575760003560e01c806347eb90c61461005c57806364328cff14610084578063b382612f14610099578063c276c308146100e2578063d1b991a414610102575b600080fd5b61006f61006a36600461038d565b610115565b60405190151581526020015b60405180910390f35b61009761009236600461038d565b610136565b005b6100976100a736600461038d565b600082815260016020818152604080842080548085018255908552828520018590559383528281529282208054918201815582529190200155565b6100f56100f03660046103af565b61016a565b60405161007b91906103c8565b6100f56101103660046103af565b6101cc565b600082815260016020526040812061012d908361022a565b90505b92915050565b600082815260016020526040902061014e9082610274565b60008181526020819052604090206101669083610274565b5050565b6000818152600160209081526040918290208054835181840281018401909452808452606093928301828280156101c057602002820191906000526020600020905b8154815260200190600101908083116101ac575b50505050509050919050565b600081815260208181526040918290208054835181840281018401909452808452606093928301828280156101c057602002820191906000526020600020908154815260200190600101908083116101ac5750505050509050919050565b600080835481101561026d57828482815481106102495761024961040c565b906000526020600020015403610263576001915050610130565b6000915050610130565b5092915050565b60005b82548110156102ad57818382815481106102935761029361040c565b9060005260206000200154036102b2576102ad83826102c4565b505050565b806102bc81610438565b915050610277565b815460009083906102d790600190610451565b815481106102e7576102e761040c565b906000526020600020015490508282815481106103065761030661040c565b906000526020600020015483600185805490506103239190610451565b815481106103335761033361040c565b9060005260206000200181905550808383815481106103545761035461040c565b90600052602060002001819055508280548061037257610372610464565b60019003818190600052602060002001600090559055505050565b600080604083850312156103a057600080fd5b50508035926020909101359150565b6000602082840312156103c157600080fd5b5035919050565b6020808252825182820181905260009190848201906040850190845b81811015610400578351835292840192918401916001016103e4565b50909695505050505050565b634e487b7160e01b600052603260045260246000fd5b634e487b7160e01b600052601160045260246000fd5b60006001820161044a5761044a610422565b5060010190565b8181038181111561013057610130610422565b634e487b7160e01b600052603160045260246000fdfea26469706673582212208136cca9f0de63b755c9e12666096ee04188c7795276bbe588b882b02dc72b5764736f6c63430008120033",
  "bytecodeSha1": "2ccd3ca749c0fa62e59f6225bbb93417b220fc32",
  "compiler": {
    "evm_version": "istanbul",
    "optimizer": {
      "enabled": true,
      "runs": 200
    },
    "version": "0.8.18+commit.87f61d96"
  },
  "contractName": "Job_Candidate",
  "language": "Solidity",
  "natspec": {
    "kind": "dev",
    "methods": {},
    "version": 1
  },
  "opcodes": "PUSH1 0x80 PUSH1 0x40 MSTORE CALLVALUE DUP1 ISZERO PUSH2 0x10 JUMPI PUSH1 0x0 DUP1 REVERT JUMPDEST POP PUSH1 0x4 CALLDATASIZE LT PUSH2 0x57 JUMPI PUSH1 0x0 CALLDATALOAD PUSH1 0xE0 SHR DUP1 PUSH4 0x47EB90C6 EQ PUSH2 0x5C JUMPI DUP1 PUSH4 0x64328CFF EQ PUSH2 0x84 JUMPI DUP1 PUSH4 0xB382612F EQ PUSH2 0x99 JUMPI DUP1 PUSH4 0xC276C308 EQ PUSH2 0xE2 JUMPI DUP1 PUSH4 0xD1B991A4 EQ PUSH2 0x102 JUMPI JUMPDEST PUSH1 0x0 DUP1 REVERT JUMPDEST PUSH2 0x6F PUSH2 0x6A CALLDATASIZE PUSH1 0x4 PUSH2 0x38D JUMP JUMPDEST PUSH2 0x115 JUMP JUMPDEST PUSH1 0x40 MLOAD SWAP1 ISZERO ISZERO DUP2 MSTORE PUSH1 0x20 ADD JUMPDEST PUSH1 0x40 MLOAD DUP1 SWAP2 SUB SWAP1 RETURN JUMPDEST PUSH2 0x97 PUSH2 0x92 CALLDATASIZE PUSH1 0x4 PUSH2 0x38D JUMP JUMPDEST PUSH2 0x136 JUMP JUMPDEST STOP JUMPDEST PUSH2 0x97 PUSH2 0xA7 CALLDATASIZE PUSH1 0x4 PUSH2 0x38D JUMP JUMPDEST PUSH1 0x0 DUP3 DUP2 MSTORE PUSH1 0x1 PUSH1 0x20 DUP2 DUP2 MSTORE PUSH1 0x40 DUP1 DUP5 KECCAK256 DUP1 SLOAD DUP1 DUP6 ADD DUP3 SSTORE SWAP1 DUP6 MSTORE DUP3 DUP6 KECCAK256 ADD DUP6 SWAP1 SSTORE SWAP4 DUP4 MSTORE DUP3 DUP2 MSTORE SWAP3 DUP3 KECCAK256 DUP1 SLOAD SWAP2 DUP3 ADD DUP2 SSTORE DUP3 MSTORE SWAP2 SWAP1 KECCAK256 ADD SSTORE JUMP JUMPDEST PUSH2 0xF5 PUSH2 0xF0 CALLDATASIZE PUSH1 0x4 PUSH2 0x3AF JUMP JUMPDEST PUSH2 0x16A JUMP JUMPDEST PUSH1 0x40 MLOAD PUSH2 0x7B SWAP2 SWAP1 PUSH2 0x3C8 JUMP JUMPDEST PUSH2 0xF5 PUSH2 0x110 CALLDATASIZE PUSH1 0x4 PUSH2 0x3AF JUMP JUMPDEST PUSH2 0x1CC JUMP JUMPDEST PUSH1 0x0 DUP3 DUP2 MSTORE PUSH1 0x1 PUSH1 0x20 MSTORE PUSH1 0x40 DUP2 KECCAK256 PUSH2 0x12D SWAP1 DUP4 PUSH2 0x22A JUMP JUMPDEST SWAP1 POP JUMPDEST SWAP3 SWAP2 POP POP JUMP JUMPDEST PUSH1 0x0 DUP3 DUP2 MSTORE PUSH1 0x1 PUSH1 0x20 MSTORE PUSH1 0x40 SWAP1 KECCAK256 PUSH2 0x14E SWAP1 DUP3 PUSH2 0x274 JUMP JUMPDEST PUSH1 0x0 DUP2 DUP2 MSTORE PUSH1 0x20 DUP2 SWAP1 MSTORE PUSH1 0x40 SWAP1 KECCAK256 PUSH2 0x166 SWAP1 DUP4 PUSH2 0x274 JUMP JUMPDEST POP POP JUMP JUMPDEST PUSH1 0x0 DUP2 DUP2 MSTORE PUSH1 0x1 PUSH1 0x20 SWAP1 DUP2 MSTORE PUSH1 0x40 SWAP2 DUP3 SWAP1 KECCAK256 DUP1 SLOAD DUP4 MLOAD DUP2 DUP5 MUL DUP2 ADD DUP5 ADD SWAP1 SWAP5 MSTORE DUP1 DUP5 MSTORE PUSH1 0x60 SWAP4 SWAP3 DUP4 ADD DUP3 DUP3 DUP1 ISZERO PUSH2 0x1C0 JUMPI PUSH1 0x20 MUL DUP3 ADD SWAP2 SWAP1 PUSH1 0x0 MSTORE PUSH1 0x20 PUSH1 0x0 KECCAK256 SWAP1 JUMPDEST DUP2 SLOAD DUP2 MSTORE PUSH1 0x20 ADD SWAP1 PUSH1 0x1 ADD SWAP1 DUP1 DUP4 GT PUSH2 0x1AC JUMPI JUMPDEST POP POP POP POP POP SWAP1 POP SWAP2 SWAP1 POP JUMP JUMPDEST PUSH1 0x0 DUP2 DUP2 MSTORE PUSH1 0x20 DUP2 DUP2 MSTORE PUSH1 0x40 SWAP2 DUP3 SWAP1 KECCAK256 DUP1 SLOAD DUP4 MLOAD DUP2 DUP5 MUL DUP2 ADD DUP5 ADD SWAP1 SWAP5 MSTORE DUP1 DUP5 MSTORE PUSH1 0x60 SWAP4 SWAP3 DUP4 ADD DUP3 DUP3 DUP1 ISZERO PUSH2 0x1C0 JUMPI PUSH1 0x20 MUL DUP3 ADD SWAP2 SWAP1 PUSH1 0x0 MSTORE PUSH1 0x20 PUSH1 0x0 KECCAK256 SWAP1 DUP2 SLOAD DUP2 MSTORE PUSH1 0x20 ADD SWAP1 PUSH1 0x1 ADD SWAP1 DUP1 DUP4 GT PUSH2 0x1AC JUMPI POP POP POP POP POP SWAP1 POP SWAP2 SWAP1 POP JUMP JUMPDEST PUSH1 0x0 DUP1 DUP4 SLOAD DUP2 LT ISZERO PUSH2 0x26D JUMPI DUP3 DUP5 DUP3 DUP2 SLOAD DUP2 LT PUSH2 0x249 JUMPI PUSH2 0x249 PUSH2 0x40C JUMP JUMPDEST SWAP1 PUSH1 0x0 MSTORE PUSH1 0x20 PUSH1 0x0 KECCAK256 ADD SLOAD SUB PUSH2 0x263 JUMPI PUSH1 0x1 SWAP2 POP POP PUSH2 0x130 JUMP JUMPDEST PUSH1 0x0 SWAP2 POP POP PUSH2 0x130 JUMP JUMPDEST POP SWAP3 SWAP2 POP POP JUMP JUMPDEST PUSH1 0x0 JUMPDEST DUP3 SLOAD DUP2 LT ISZERO PUSH2 0x2AD JUMPI DUP2 DUP4 DUP3 DUP2 SLOAD DUP2 LT PUSH2 0x293 JUMPI PUSH2 0x293 PUSH2 0x40C JUMP JUMPDEST SWAP1 PUSH1 0x0 MSTORE PUSH1 0x20 PUSH1 0x0 KECCAK256 ADD SLOAD SUB PUSH2 0x2B2 JUMPI PUSH2 0x2AD DUP4 DUP3 PUSH2 0x2C4 JUMP JUMPDEST POP POP POP JUMP JUMPDEST DUP1 PUSH2 0x2BC DUP2 PUSH2 0x438 JUMP JUMPDEST SWAP2 POP POP PUSH2 0x277 JUMP JUMPDEST DUP2 SLOAD PUSH1 0x0 SWAP1 DUP4 SWAP1 PUSH2 0x2D7 SWAP1 PUSH1 0x1 SWAP1 PUSH2 0x451 JUMP JUMPDEST DUP2 SLOAD DUP2 LT PUSH2 0x2E7 JUMPI PUSH2 0x2E7 PUSH2 0x40C JUMP JUMPDEST SWAP1 PUSH1 0x0 MSTORE PUSH1 0x20 PUSH1 0x0 KECCAK256 ADD SLOAD SWAP1 POP DUP3 DUP3 DUP2 SLOAD DUP2 LT PUSH2 0x306 JUMPI PUSH2 0x306 PUSH2 0x40C JUMP JUMPDEST SWAP1 PUSH1 0x0 MSTORE PUSH1 0x20 PUSH1 0x0 KECCAK256 ADD SLOAD DUP4 PUSH1 0x1 DUP6 DUP1 SLOAD SWAP1 POP PUSH2 0x323 SWAP2 SWAP1 PUSH2 0x451 JUMP JUMPDEST DUP2 SLOAD DUP2 LT PUSH2 0x333 JUMPI PUSH2 0x333 PUSH2 0x40C JUMP JUMPDEST SWAP1 PUSH1 0x0 MSTORE PUSH1 0x20 PUSH1 0x0 KECCAK256 ADD DUP2 SWAP1 SSTORE POP DUP1 DUP4 DUP4 DUP2 SLOAD DUP2 LT PUSH2 0x354 JUMPI PUSH2 0x354 PUSH2 0x40C JUMP JUMPDEST SWAP1 PUSH1 0x0 MSTORE PUSH1 0x20 PUSH1 0x0 KECCAK256 ADD DUP2 SWAP1 SSTORE POP DUP3 DUP1 SLOAD DUP1 PUSH2 0x372 JUMPI PUSH2 0x372 PUSH2 0x464 JUMP JUMPDEST PUSH1 0x1 SWAP1 SUB DUP2 DUP2 SWAP1 PUSH1 0x0 MSTORE PUSH1 0x20 PUSH1 0x0 KECCAK256 ADD PUSH1 0x0 SWAP1 SSTORE SWAP1 SSTORE POP POP POP JUMP JUMPDEST PUSH1 0x0 DUP1 PUSH1 0x40 DUP4 DUP6 SUB SLT ISZERO PUSH2 0x3A0 JUMPI PUSH1 0x0 DUP1 REVERT JUMPDEST POP POP DUP1 CALLDATALOAD SWAP3 PUSH1 0x20 SWAP1 SWAP2 ADD CALLDATALOAD SWAP2 POP JUMP JUMPDEST PUSH1 0x0 PUSH1 0x20 DUP3 DUP5 SUB SLT ISZERO PUSH2 0x3C1 JUMPI PUSH1 0x0 DUP1 REVERT JUMPDEST POP CALLDATALOAD SWAP2 SWAP1 POP JUMP JUMPDEST PUSH1 0x20 DUP1 DUP3 MSTORE DUP3 MLOAD DUP3 DUP3 ADD DUP2 SWAP1 MSTORE PUSH1 0x0 SWAP2 SWAP1 DUP5 DUP3 ADD SWAP1 PUSH1 0x40 DUP6 ADD SWAP1 DUP5 JUMPDEST DUP2 DUP2 LT ISZERO PUSH2 0x400 JUMPI DUP4 MLOAD DUP4 MSTORE SWAP3 DUP5 ADD SWAP3 SWAP2 DUP5 ADD SWAP2 PUSH1 0x1 ADD PUSH2 0x3E4 JUMP JUMPDEST POP SWAP1 SWAP7 SWAP6 POP POP POP POP POP POP JUMP JUMPDEST PUSH4 0x4E487B71 PUSH1 0xE0 SHL PUSH1 0x0 MSTORE PUSH1 0x32 PUSH1 0x4 MSTORE PUSH1 0x24 PUSH1 0x0 REVERT JUMPDEST PUSH4 0x4E487B71 PUSH1 0xE0 SHL PUSH1 0x0 MSTORE PUSH1 0x11 PUSH1 0x4 MSTORE PUSH1 0x24 PUSH1 0x0 REVERT JUMPDEST PUSH1 0x0 PUSH1 0x1 DUP3 ADD PUSH2 0x44A JUMPI PUSH2 0x44A PUSH2 0x422 JUMP JUMPDEST POP PUSH1 0x1 ADD SWAP1 JUMP JUMPDEST DUP2 DUP2 SUB DUP2 DUP2 GT ISZERO PUSH2 0x130 JUMPI PUSH2 0x130 PUSH2 0x422 JUMP JUMPDEST PUSH4 0x4E487B71 PUSH1 0xE0 SHL PUSH1 0x0 MSTORE PUSH1 0x31 PUSH1 0x4 MSTORE PUSH1 0x24 PUSH1 0x0 REVERT INVALID LOG2 PUSH5 0x6970667358 0x22 SLT KECCAK256 DUP2 CALLDATASIZE 0xCC 0xA9 CREATE 0xDE PUSH4 0xB755C9E1 0x26 PUSH7 0x96EE04188C779 MSTORE PUSH23 0xBBE588B882B02DC72B5764736F6C634300081200330000 ",
  "sha1": "14a905c30e589b99550e772fd8796019e8887ee6",
  "source": "// SPDX-License-Identifier: MIT\n\npragma solidity ^0.8.0;\nimport \"./library/UintArray.sol\";\n\ncontract Job_Candidate {\n    using UintArray for uint[];\n    mapping(uint => uint[]) internal s_jobToCandidate;\n    mapping(uint => uint[]) internal s_candidateToJob;\n\n    function connectJobCandidate(uint _candidate, uint _job) public {\n        s_candidateToJob[_candidate].push(_job);\n        s_jobToCandidate[_job].push(_candidate);\n    }\n\n    function disconnectJobCandidate(uint _candidate, uint _job) public {\n        s_candidateToJob[_candidate].removeElement(_job);\n        s_jobToCandidate[_job].removeElement(_candidate);\n    }\n\n    function isExistedJobCandidate(\n        uint _candidate,\n        uint _job\n    ) public view returns (bool) {\n        return s_candidateToJob[_candidate].isElementExisted(_job);\n    }\n\n    function getCandidatesThruJob(\n        uint _id\n    ) public view returns (uint[] memory) {\n        return s_jobToCandidate[_id];\n    }\n\n    function getJobsThruCandidate(\n        uint _id\n    ) public view returns (uint[] memory) {\n        return s_candidateToJob[_id];\n    }\n}\n",
  "sourcePath": "contracts/Job_Candidate.sol",
  "type": "contract"
}