{
  "abi": [
    {
      "inputs": [
        {
          "internalType": "uint256",
          "name": "_skill",
          "type": "uint256"
        },
        {
          "internalType": "uint256",
          "name": "_job",
          "type": "uint256"
        }
      ],
      "name": "connectJobSkill",
      "outputs": [],
      "stateMutability": "nonpayable",
      "type": "function"
    },
    {
      "inputs": [
        {
          "internalType": "uint256",
          "name": "_skill",
          "type": "uint256"
        },
        {
          "internalType": "uint256",
          "name": "_job",
          "type": "uint256"
        }
      ],
      "name": "disconnectJobSkill",
      "outputs": [],
      "stateMutability": "nonpayable",
      "type": "function"
    },
    {
      "inputs": [
        {
          "internalType": "uint256",
          "name": "_id",
          "type": "uint256"
        }
      ],
      "name": "getJobsThruSkill",
      "outputs": [
        {
          "internalType": "uint256[]",
          "name": "",
          "type": "uint256[]"
        }
      ],
      "stateMutability": "view",
      "type": "function"
    },
    {
      "inputs": [
        {
          "internalType": "uint256",
          "name": "_id",
          "type": "uint256"
        }
      ],
      "name": "getSkillsThruJob",
      "outputs": [
        {
          "internalType": "uint256[]",
          "name": "",
          "type": "uint256[]"
        }
      ],
      "stateMutability": "view",
      "type": "function"
    },
    {
      "inputs": [
        {
          "internalType": "uint256",
          "name": "_skill",
          "type": "uint256"
        },
        {
          "internalType": "uint256",
          "name": "_job",
          "type": "uint256"
        }
      ],
      "name": "isExistedJobSkill",
      "outputs": [
        {
          "internalType": "bool",
          "name": "",
          "type": "bool"
        }
      ],
      "stateMutability": "view",
      "type": "function"
    }
  ],
  "bytecode": "608060405234801561001057600080fd5b506104b4806100206000396000f3fe608060405234801561001057600080fd5b50600436106100575760003560e01c806302cb3aab1461005c57806327cf9a30146100a75780633d081fc3146100d05780639d622933146100f3578063c7fdfb1a14610106575b600080fd5b6100a561006a366004610391565b600081815260208181526040808320805460018181018355918552838520018690559483528482528220805494850181558252902090910155565b005b6100ba6100b53660046103b3565b610119565b6040516100c791906103cc565b60405180910390f35b6100e36100de366004610391565b610179565b60405190151581526020016100c7565b6100ba6101013660046103b3565b61019a565b6100a5610114366004610391565b6101fa565b6000818152602081815260409182902080548351818402810184019094528084526060939283018282801561016d57602002820191906000526020600020905b815481526020019060010190808311610159575b50505050509050919050565b6000818152602081905260408120610191908461022e565b90505b92915050565b60008181526001602090815260409182902080548351818402810184019094528084526060939283018282801561016d57602002820191906000526020600020908154815260200190600101908083116101595750505050509050919050565b60008181526020819052604090206102129083610278565b600082815260016020526040902061022a9082610278565b5050565b6000808354811015610271578284828154811061024d5761024d610410565b906000526020600020015403610267576001915050610194565b6000915050610194565b5092915050565b60005b82548110156102b1578183828154811061029757610297610410565b9060005260206000200154036102b6576102b183826102c8565b505050565b806102c08161043c565b91505061027b565b815460009083906102db90600190610455565b815481106102eb576102eb610410565b9060005260206000200154905082828154811061030a5761030a610410565b906000526020600020015483600185805490506103279190610455565b8154811061033757610337610410565b90600052602060002001819055508083838154811061035857610358610410565b90600052602060002001819055508280548061037657610376610468565b60019003818190600052602060002001600090559055505050565b600080604083850312156103a457600080fd5b50508035926020909101359150565b6000602082840312156103c557600080fd5b5035919050565b6020808252825182820181905260009190848201906040850190845b81811015610404578351835292840192918401916001016103e8565b50909695505050505050565b634e487b7160e01b600052603260045260246000fd5b634e487b7160e01b600052601160045260246000fd5b60006001820161044e5761044e610426565b5060010190565b8181038181111561019457610194610426565b634e487b7160e01b600052603160045260246000fdfea26469706673582212202f9f25e0f68d28822fd4623d864b8288ad766f28d6d3042d5b41a0c1223c9bac64736f6c63430008120033",
  "bytecodeSha1": "e41d338ae0f13ab81164366a9dad4bbc8282ada1",
  "compiler": {
    "evm_version": "istanbul",
    "optimizer": {
      "enabled": true,
      "runs": 200
    },
    "version": "0.8.18+commit.87f61d96"
  },
  "contractName": "Job_Skill",
  "language": "Solidity",
  "natspec": {
    "kind": "dev",
    "methods": {},
    "version": 1
  },
  "opcodes": "PUSH1 0x80 PUSH1 0x40 MSTORE CALLVALUE DUP1 ISZERO PUSH2 0x10 JUMPI PUSH1 0x0 DUP1 REVERT JUMPDEST POP PUSH1 0x4 CALLDATASIZE LT PUSH2 0x57 JUMPI PUSH1 0x0 CALLDATALOAD PUSH1 0xE0 SHR DUP1 PUSH4 0x2CB3AAB EQ PUSH2 0x5C JUMPI DUP1 PUSH4 0x27CF9A30 EQ PUSH2 0xA7 JUMPI DUP1 PUSH4 0x3D081FC3 EQ PUSH2 0xD0 JUMPI DUP1 PUSH4 0x9D622933 EQ PUSH2 0xF3 JUMPI DUP1 PUSH4 0xC7FDFB1A EQ PUSH2 0x106 JUMPI JUMPDEST PUSH1 0x0 DUP1 REVERT JUMPDEST PUSH2 0xA5 PUSH2 0x6A CALLDATASIZE PUSH1 0x4 PUSH2 0x391 JUMP JUMPDEST PUSH1 0x0 DUP2 DUP2 MSTORE PUSH1 0x20 DUP2 DUP2 MSTORE PUSH1 0x40 DUP1 DUP4 KECCAK256 DUP1 SLOAD PUSH1 0x1 DUP2 DUP2 ADD DUP4 SSTORE SWAP2 DUP6 MSTORE DUP4 DUP6 KECCAK256 ADD DUP7 SWAP1 SSTORE SWAP5 DUP4 MSTORE DUP5 DUP3 MSTORE DUP3 KECCAK256 DUP1 SLOAD SWAP5 DUP6 ADD DUP2 SSTORE DUP3 MSTORE SWAP1 KECCAK256 SWAP1 SWAP2 ADD SSTORE JUMP JUMPDEST STOP JUMPDEST PUSH2 0xBA PUSH2 0xB5 CALLDATASIZE PUSH1 0x4 PUSH2 0x3B3 JUMP JUMPDEST PUSH2 0x119 JUMP JUMPDEST PUSH1 0x40 MLOAD PUSH2 0xC7 SWAP2 SWAP1 PUSH2 0x3CC JUMP JUMPDEST PUSH1 0x40 MLOAD DUP1 SWAP2 SUB SWAP1 RETURN JUMPDEST PUSH2 0xE3 PUSH2 0xDE CALLDATASIZE PUSH1 0x4 PUSH2 0x391 JUMP JUMPDEST PUSH2 0x179 JUMP JUMPDEST PUSH1 0x40 MLOAD SWAP1 ISZERO ISZERO DUP2 MSTORE PUSH1 0x20 ADD PUSH2 0xC7 JUMP JUMPDEST PUSH2 0xBA PUSH2 0x101 CALLDATASIZE PUSH1 0x4 PUSH2 0x3B3 JUMP JUMPDEST PUSH2 0x19A JUMP JUMPDEST PUSH2 0xA5 PUSH2 0x114 CALLDATASIZE PUSH1 0x4 PUSH2 0x391 JUMP JUMPDEST PUSH2 0x1FA JUMP JUMPDEST PUSH1 0x0 DUP2 DUP2 MSTORE PUSH1 0x20 DUP2 DUP2 MSTORE PUSH1 0x40 SWAP2 DUP3 SWAP1 KECCAK256 DUP1 SLOAD DUP4 MLOAD DUP2 DUP5 MUL DUP2 ADD DUP5 ADD SWAP1 SWAP5 MSTORE DUP1 DUP5 MSTORE PUSH1 0x60 SWAP4 SWAP3 DUP4 ADD DUP3 DUP3 DUP1 ISZERO PUSH2 0x16D JUMPI PUSH1 0x20 MUL DUP3 ADD SWAP2 SWAP1 PUSH1 0x0 MSTORE PUSH1 0x20 PUSH1 0x0 KECCAK256 SWAP1 JUMPDEST DUP2 SLOAD DUP2 MSTORE PUSH1 0x20 ADD SWAP1 PUSH1 0x1 ADD SWAP1 DUP1 DUP4 GT PUSH2 0x159 JUMPI JUMPDEST POP POP POP POP POP SWAP1 POP SWAP2 SWAP1 POP JUMP JUMPDEST PUSH1 0x0 DUP2 DUP2 MSTORE PUSH1 0x20 DUP2 SWAP1 MSTORE PUSH1 0x40 DUP2 KECCAK256 PUSH2 0x191 SWAP1 DUP5 PUSH2 0x22E JUMP JUMPDEST SWAP1 POP JUMPDEST SWAP3 SWAP2 POP POP JUMP JUMPDEST PUSH1 0x0 DUP2 DUP2 MSTORE PUSH1 0x1 PUSH1 0x20 SWAP1 DUP2 MSTORE PUSH1 0x40 SWAP2 DUP3 SWAP1 KECCAK256 DUP1 SLOAD DUP4 MLOAD DUP2 DUP5 MUL DUP2 ADD DUP5 ADD SWAP1 SWAP5 MSTORE DUP1 DUP5 MSTORE PUSH1 0x60 SWAP4 SWAP3 DUP4 ADD DUP3 DUP3 DUP1 ISZERO PUSH2 0x16D JUMPI PUSH1 0x20 MUL DUP3 ADD SWAP2 SWAP1 PUSH1 0x0 MSTORE PUSH1 0x20 PUSH1 0x0 KECCAK256 SWAP1 DUP2 SLOAD DUP2 MSTORE PUSH1 0x20 ADD SWAP1 PUSH1 0x1 ADD SWAP1 DUP1 DUP4 GT PUSH2 0x159 JUMPI POP POP POP POP POP SWAP1 POP SWAP2 SWAP1 POP JUMP JUMPDEST PUSH1 0x0 DUP2 DUP2 MSTORE PUSH1 0x20 DUP2 SWAP1 MSTORE PUSH1 0x40 SWAP1 KECCAK256 PUSH2 0x212 SWAP1 DUP4 PUSH2 0x278 JUMP JUMPDEST PUSH1 0x0 DUP3 DUP2 MSTORE PUSH1 0x1 PUSH1 0x20 MSTORE PUSH1 0x40 SWAP1 KECCAK256 PUSH2 0x22A SWAP1 DUP3 PUSH2 0x278 JUMP JUMPDEST POP POP JUMP JUMPDEST PUSH1 0x0 DUP1 DUP4 SLOAD DUP2 LT ISZERO PUSH2 0x271 JUMPI DUP3 DUP5 DUP3 DUP2 SLOAD DUP2 LT PUSH2 0x24D JUMPI PUSH2 0x24D PUSH2 0x410 JUMP JUMPDEST SWAP1 PUSH1 0x0 MSTORE PUSH1 0x20 PUSH1 0x0 KECCAK256 ADD SLOAD SUB PUSH2 0x267 JUMPI PUSH1 0x1 SWAP2 POP POP PUSH2 0x194 JUMP JUMPDEST PUSH1 0x0 SWAP2 POP POP PUSH2 0x194 JUMP JUMPDEST POP SWAP3 SWAP2 POP POP JUMP JUMPDEST PUSH1 0x0 JUMPDEST DUP3 SLOAD DUP2 LT ISZERO PUSH2 0x2B1 JUMPI DUP2 DUP4 DUP3 DUP2 SLOAD DUP2 LT PUSH2 0x297 JUMPI PUSH2 0x297 PUSH2 0x410 JUMP JUMPDEST SWAP1 PUSH1 0x0 MSTORE PUSH1 0x20 PUSH1 0x0 KECCAK256 ADD SLOAD SUB PUSH2 0x2B6 JUMPI PUSH2 0x2B1 DUP4 DUP3 PUSH2 0x2C8 JUMP JUMPDEST POP POP POP JUMP JUMPDEST DUP1 PUSH2 0x2C0 DUP2 PUSH2 0x43C JUMP JUMPDEST SWAP2 POP POP PUSH2 0x27B JUMP JUMPDEST DUP2 SLOAD PUSH1 0x0 SWAP1 DUP4 SWAP1 PUSH2 0x2DB SWAP1 PUSH1 0x1 SWAP1 PUSH2 0x455 JUMP JUMPDEST DUP2 SLOAD DUP2 LT PUSH2 0x2EB JUMPI PUSH2 0x2EB PUSH2 0x410 JUMP JUMPDEST SWAP1 PUSH1 0x0 MSTORE PUSH1 0x20 PUSH1 0x0 KECCAK256 ADD SLOAD SWAP1 POP DUP3 DUP3 DUP2 SLOAD DUP2 LT PUSH2 0x30A JUMPI PUSH2 0x30A PUSH2 0x410 JUMP JUMPDEST SWAP1 PUSH1 0x0 MSTORE PUSH1 0x20 PUSH1 0x0 KECCAK256 ADD SLOAD DUP4 PUSH1 0x1 DUP6 DUP1 SLOAD SWAP1 POP PUSH2 0x327 SWAP2 SWAP1 PUSH2 0x455 JUMP JUMPDEST DUP2 SLOAD DUP2 LT PUSH2 0x337 JUMPI PUSH2 0x337 PUSH2 0x410 JUMP JUMPDEST SWAP1 PUSH1 0x0 MSTORE PUSH1 0x20 PUSH1 0x0 KECCAK256 ADD DUP2 SWAP1 SSTORE POP DUP1 DUP4 DUP4 DUP2 SLOAD DUP2 LT PUSH2 0x358 JUMPI PUSH2 0x358 PUSH2 0x410 JUMP JUMPDEST SWAP1 PUSH1 0x0 MSTORE PUSH1 0x20 PUSH1 0x0 KECCAK256 ADD DUP2 SWAP1 SSTORE POP DUP3 DUP1 SLOAD DUP1 PUSH2 0x376 JUMPI PUSH2 0x376 PUSH2 0x468 JUMP JUMPDEST PUSH1 0x1 SWAP1 SUB DUP2 DUP2 SWAP1 PUSH1 0x0 MSTORE PUSH1 0x20 PUSH1 0x0 KECCAK256 ADD PUSH1 0x0 SWAP1 SSTORE SWAP1 SSTORE POP POP POP JUMP JUMPDEST PUSH1 0x0 DUP1 PUSH1 0x40 DUP4 DUP6 SUB SLT ISZERO PUSH2 0x3A4 JUMPI PUSH1 0x0 DUP1 REVERT JUMPDEST POP POP DUP1 CALLDATALOAD SWAP3 PUSH1 0x20 SWAP1 SWAP2 ADD CALLDATALOAD SWAP2 POP JUMP JUMPDEST PUSH1 0x0 PUSH1 0x20 DUP3 DUP5 SUB SLT ISZERO PUSH2 0x3C5 JUMPI PUSH1 0x0 DUP1 REVERT JUMPDEST POP CALLDATALOAD SWAP2 SWAP1 POP JUMP JUMPDEST PUSH1 0x20 DUP1 DUP3 MSTORE DUP3 MLOAD DUP3 DUP3 ADD DUP2 SWAP1 MSTORE PUSH1 0x0 SWAP2 SWAP1 DUP5 DUP3 ADD SWAP1 PUSH1 0x40 DUP6 ADD SWAP1 DUP5 JUMPDEST DUP2 DUP2 LT ISZERO PUSH2 0x404 JUMPI DUP4 MLOAD DUP4 MSTORE SWAP3 DUP5 ADD SWAP3 SWAP2 DUP5 ADD SWAP2 PUSH1 0x1 ADD PUSH2 0x3E8 JUMP JUMPDEST POP SWAP1 SWAP7 SWAP6 POP POP POP POP POP POP JUMP JUMPDEST PUSH4 0x4E487B71 PUSH1 0xE0 SHL PUSH1 0x0 MSTORE PUSH1 0x32 PUSH1 0x4 MSTORE PUSH1 0x24 PUSH1 0x0 REVERT JUMPDEST PUSH4 0x4E487B71 PUSH1 0xE0 SHL PUSH1 0x0 MSTORE PUSH1 0x11 PUSH1 0x4 MSTORE PUSH1 0x24 PUSH1 0x0 REVERT JUMPDEST PUSH1 0x0 PUSH1 0x1 DUP3 ADD PUSH2 0x44E JUMPI PUSH2 0x44E PUSH2 0x426 JUMP JUMPDEST POP PUSH1 0x1 ADD SWAP1 JUMP JUMPDEST DUP2 DUP2 SUB DUP2 DUP2 GT ISZERO PUSH2 0x194 JUMPI PUSH2 0x194 PUSH2 0x426 JUMP JUMPDEST PUSH4 0x4E487B71 PUSH1 0xE0 SHL PUSH1 0x0 MSTORE PUSH1 0x31 PUSH1 0x4 MSTORE PUSH1 0x24 PUSH1 0x0 REVERT INVALID LOG2 PUSH5 0x6970667358 0x22 SLT KECCAK256 0x2F SWAP16 0x25 0xE0 0xF6 DUP14 0x28 DUP3 0x2F 0xD4 PUSH3 0x3D864B DUP3 DUP9 0xAD PUSH23 0x6F28D6D3042D5B41A0C1223C9BAC64736F6C6343000812 STOP CALLER ",
  "sha1": "ef66a93337d9738584a61402dffb9ab5870e6f35",
  "source": "// SPDX-License-Identifier: MIT\n\npragma solidity ^0.8.0;\nimport \"./library/UintArray.sol\";\n\ncontract Job_Skill {\n    using UintArray for uint[];\n    mapping(uint => uint[]) s_jobToSkill;\n    mapping(uint => uint[]) s_skillToJob;\n\n    function connectJobSkill(uint _skill, uint _job) public {\n        s_jobToSkill[_job].push(_skill);\n        s_skillToJob[_skill].push(_job);\n    }\n\n    function disconnectJobSkill(uint _skill, uint _job) public {\n        s_jobToSkill[_job].removeElement(_skill);\n        s_skillToJob[_skill].removeElement(_job);\n    }\n\n    function isExistedJobSkill(\n        uint _skill,\n        uint _job\n    ) public view returns (bool) {\n        return s_jobToSkill[_job].isElementExisted(_skill);\n    }\n\n    function getSkillsThruJob(uint _id) public view returns (uint[] memory) {\n        return s_jobToSkill[_id];\n    }\n\n    function getJobsThruSkill(uint _id) public view returns (uint[] memory) {\n        return s_skillToJob[_id];\n    }\n}\n",
  "sourcePath": "contracts/Job_Skill.sol",
  "type": "contract"
}