{
  "abi": [
    {
      "inputs": [
        {
          "internalType": "uint256",
          "name": "_recruiter",
          "type": "uint256"
        },
        {
          "internalType": "uint256",
          "name": "_resume",
          "type": "uint256"
        }
      ],
      "name": "connectResumeRecruiter",
      "outputs": [],
      "stateMutability": "nonpayable",
      "type": "function"
    },
    {
      "inputs": [
        {
          "internalType": "uint256",
          "name": "_recruiter",
          "type": "uint256"
        },
        {
          "internalType": "uint256",
          "name": "_resume",
          "type": "uint256"
        }
      ],
      "name": "disconnectResumeRecruiter",
      "outputs": [],
      "stateMutability": "nonpayable",
      "type": "function"
    },
    {
      "inputs": [
        {
          "internalType": "uint256",
          "name": "_resume",
          "type": "uint256"
        }
      ],
      "name": "getRecruitersThruResume",
      "outputs": [
        {
          "internalType": "uint256[]",
          "name": "",
          "type": "uint256[]"
        }
      ],
      "stateMutability": "view",
      "type": "function"
    },
    {
      "inputs": [
        {
          "internalType": "uint256",
          "name": "_recruiter",
          "type": "uint256"
        }
      ],
      "name": "getResumesThruRecruiter",
      "outputs": [
        {
          "internalType": "uint256[]",
          "name": "",
          "type": "uint256[]"
        }
      ],
      "stateMutability": "view",
      "type": "function"
    },
    {
      "inputs": [
        {
          "internalType": "uint256",
          "name": "_recruiter",
          "type": "uint256"
        },
        {
          "internalType": "uint256",
          "name": "_resume",
          "type": "uint256"
        }
      ],
      "name": "isExistedResumeRecruiter",
      "outputs": [
        {
          "internalType": "bool",
          "name": "",
          "type": "bool"
        }
      ],
      "stateMutability": "view",
      "type": "function"
    }
  ],
  "bytecode": "608060405234801561001057600080fd5b506104b4806100206000396000f3fe608060405234801561001057600080fd5b50600436106100575760003560e01c806309d3f5751461005c57806351f7f530146100855780639fae8479146100d0578063d62a34f8146100e3578063dccfc9dd14610106575b600080fd5b61006f61006a366004610391565b610119565b60405161007c91906103aa565b60405180910390f35b6100ce6100933660046103ee565b600081815260208181526040808320805460018181018355918552838520018690559483528482528220805494850181558252902090910155565b005b61006f6100de366004610391565b610179565b6100f66100f13660046103ee565b6101d9565b604051901515815260200161007c565b6100ce6101143660046103ee565b6101fa565b6000818152602081815260409182902080548351818402810184019094528084526060939283018282801561016d57602002820191906000526020600020905b815481526020019060010190808311610159575b50505050509050919050565b60008181526001602090815260409182902080548351818402810184019094528084526060939283018282801561016d57602002820191906000526020600020908154815260200190600101908083116101595750505050509050919050565b60008181526020819052604081206101f1908461022e565b90505b92915050565b60008181526020819052604090206102129083610278565b600082815260016020526040902061022a9082610278565b5050565b6000808354811015610271578284828154811061024d5761024d610410565b9060005260206000200154036102675760019150506101f4565b60009150506101f4565b5092915050565b60005b82548110156102b1578183828154811061029757610297610410565b9060005260206000200154036102b6576102b183826102c8565b505050565b806102c08161043c565b91505061027b565b815460009083906102db90600190610455565b815481106102eb576102eb610410565b9060005260206000200154905082828154811061030a5761030a610410565b906000526020600020015483600185805490506103279190610455565b8154811061033757610337610410565b90600052602060002001819055508083838154811061035857610358610410565b90600052602060002001819055508280548061037657610376610468565b60019003818190600052602060002001600090559055505050565b6000602082840312156103a357600080fd5b5035919050565b6020808252825182820181905260009190848201906040850190845b818110156103e2578351835292840192918401916001016103c6565b50909695505050505050565b6000806040838503121561040157600080fd5b50508035926020909101359150565b634e487b7160e01b600052603260045260246000fd5b634e487b7160e01b600052601160045260246000fd5b60006001820161044e5761044e610426565b5060010190565b818103818111156101f4576101f4610426565b634e487b7160e01b600052603160045260246000fdfea2646970667358221220dcf3eddbe7a5fff18e7204a8da86b0480473004aa148b59fc94e30247538be2564736f6c63430008120033",
  "bytecodeSha1": "9662831a67c50cba6a3f1aa5c5d28eee064e283f",
  "compiler": {
    "evm_version": "istanbul",
    "optimizer": {
      "enabled": true,
      "runs": 200
    },
    "version": "0.8.18+commit.87f61d96"
  },
  "contractName": "Resume_Recruiter",
  "language": "Solidity",
  "natspec": {
    "kind": "dev",
    "methods": {},
    "version": 1
  },
  "opcodes": "PUSH1 0x80 PUSH1 0x40 MSTORE CALLVALUE DUP1 ISZERO PUSH2 0x10 JUMPI PUSH1 0x0 DUP1 REVERT JUMPDEST POP PUSH1 0x4 CALLDATASIZE LT PUSH2 0x57 JUMPI PUSH1 0x0 CALLDATALOAD PUSH1 0xE0 SHR DUP1 PUSH4 0x9D3F575 EQ PUSH2 0x5C JUMPI DUP1 PUSH4 0x51F7F530 EQ PUSH2 0x85 JUMPI DUP1 PUSH4 0x9FAE8479 EQ PUSH2 0xD0 JUMPI DUP1 PUSH4 0xD62A34F8 EQ PUSH2 0xE3 JUMPI DUP1 PUSH4 0xDCCFC9DD EQ PUSH2 0x106 JUMPI JUMPDEST PUSH1 0x0 DUP1 REVERT JUMPDEST PUSH2 0x6F PUSH2 0x6A CALLDATASIZE PUSH1 0x4 PUSH2 0x391 JUMP JUMPDEST PUSH2 0x119 JUMP JUMPDEST PUSH1 0x40 MLOAD PUSH2 0x7C SWAP2 SWAP1 PUSH2 0x3AA JUMP JUMPDEST PUSH1 0x40 MLOAD DUP1 SWAP2 SUB SWAP1 RETURN JUMPDEST PUSH2 0xCE PUSH2 0x93 CALLDATASIZE PUSH1 0x4 PUSH2 0x3EE JUMP JUMPDEST PUSH1 0x0 DUP2 DUP2 MSTORE PUSH1 0x20 DUP2 DUP2 MSTORE PUSH1 0x40 DUP1 DUP4 KECCAK256 DUP1 SLOAD PUSH1 0x1 DUP2 DUP2 ADD DUP4 SSTORE SWAP2 DUP6 MSTORE DUP4 DUP6 KECCAK256 ADD DUP7 SWAP1 SSTORE SWAP5 DUP4 MSTORE DUP5 DUP3 MSTORE DUP3 KECCAK256 DUP1 SLOAD SWAP5 DUP6 ADD DUP2 SSTORE DUP3 MSTORE SWAP1 KECCAK256 SWAP1 SWAP2 ADD SSTORE JUMP JUMPDEST STOP JUMPDEST PUSH2 0x6F PUSH2 0xDE CALLDATASIZE PUSH1 0x4 PUSH2 0x391 JUMP JUMPDEST PUSH2 0x179 JUMP JUMPDEST PUSH2 0xF6 PUSH2 0xF1 CALLDATASIZE PUSH1 0x4 PUSH2 0x3EE JUMP JUMPDEST PUSH2 0x1D9 JUMP JUMPDEST PUSH1 0x40 MLOAD SWAP1 ISZERO ISZERO DUP2 MSTORE PUSH1 0x20 ADD PUSH2 0x7C JUMP JUMPDEST PUSH2 0xCE PUSH2 0x114 CALLDATASIZE PUSH1 0x4 PUSH2 0x3EE JUMP JUMPDEST PUSH2 0x1FA JUMP JUMPDEST PUSH1 0x0 DUP2 DUP2 MSTORE PUSH1 0x20 DUP2 DUP2 MSTORE PUSH1 0x40 SWAP2 DUP3 SWAP1 KECCAK256 DUP1 SLOAD DUP4 MLOAD DUP2 DUP5 MUL DUP2 ADD DUP5 ADD SWAP1 SWAP5 MSTORE DUP1 DUP5 MSTORE PUSH1 0x60 SWAP4 SWAP3 DUP4 ADD DUP3 DUP3 DUP1 ISZERO PUSH2 0x16D JUMPI PUSH1 0x20 MUL DUP3 ADD SWAP2 SWAP1 PUSH1 0x0 MSTORE PUSH1 0x20 PUSH1 0x0 KECCAK256 SWAP1 JUMPDEST DUP2 SLOAD DUP2 MSTORE PUSH1 0x20 ADD SWAP1 PUSH1 0x1 ADD SWAP1 DUP1 DUP4 GT PUSH2 0x159 JUMPI JUMPDEST POP POP POP POP POP SWAP1 POP SWAP2 SWAP1 POP JUMP JUMPDEST PUSH1 0x0 DUP2 DUP2 MSTORE PUSH1 0x1 PUSH1 0x20 SWAP1 DUP2 MSTORE PUSH1 0x40 SWAP2 DUP3 SWAP1 KECCAK256 DUP1 SLOAD DUP4 MLOAD DUP2 DUP5 MUL DUP2 ADD DUP5 ADD SWAP1 SWAP5 MSTORE DUP1 DUP5 MSTORE PUSH1 0x60 SWAP4 SWAP3 DUP4 ADD DUP3 DUP3 DUP1 ISZERO PUSH2 0x16D JUMPI PUSH1 0x20 MUL DUP3 ADD SWAP2 SWAP1 PUSH1 0x0 MSTORE PUSH1 0x20 PUSH1 0x0 KECCAK256 SWAP1 DUP2 SLOAD DUP2 MSTORE PUSH1 0x20 ADD SWAP1 PUSH1 0x1 ADD SWAP1 DUP1 DUP4 GT PUSH2 0x159 JUMPI POP POP POP POP POP SWAP1 POP SWAP2 SWAP1 POP JUMP JUMPDEST PUSH1 0x0 DUP2 DUP2 MSTORE PUSH1 0x20 DUP2 SWAP1 MSTORE PUSH1 0x40 DUP2 KECCAK256 PUSH2 0x1F1 SWAP1 DUP5 PUSH2 0x22E JUMP JUMPDEST SWAP1 POP JUMPDEST SWAP3 SWAP2 POP POP JUMP JUMPDEST PUSH1 0x0 DUP2 DUP2 MSTORE PUSH1 0x20 DUP2 SWAP1 MSTORE PUSH1 0x40 SWAP1 KECCAK256 PUSH2 0x212 SWAP1 DUP4 PUSH2 0x278 JUMP JUMPDEST PUSH1 0x0 DUP3 DUP2 MSTORE PUSH1 0x1 PUSH1 0x20 MSTORE PUSH1 0x40 SWAP1 KECCAK256 PUSH2 0x22A SWAP1 DUP3 PUSH2 0x278 JUMP JUMPDEST POP POP JUMP JUMPDEST PUSH1 0x0 DUP1 DUP4 SLOAD DUP2 LT ISZERO PUSH2 0x271 JUMPI DUP3 DUP5 DUP3 DUP2 SLOAD DUP2 LT PUSH2 0x24D JUMPI PUSH2 0x24D PUSH2 0x410 JUMP JUMPDEST SWAP1 PUSH1 0x0 MSTORE PUSH1 0x20 PUSH1 0x0 KECCAK256 ADD SLOAD SUB PUSH2 0x267 JUMPI PUSH1 0x1 SWAP2 POP POP PUSH2 0x1F4 JUMP JUMPDEST PUSH1 0x0 SWAP2 POP POP PUSH2 0x1F4 JUMP JUMPDEST POP SWAP3 SWAP2 POP POP JUMP JUMPDEST PUSH1 0x0 JUMPDEST DUP3 SLOAD DUP2 LT ISZERO PUSH2 0x2B1 JUMPI DUP2 DUP4 DUP3 DUP2 SLOAD DUP2 LT PUSH2 0x297 JUMPI PUSH2 0x297 PUSH2 0x410 JUMP JUMPDEST SWAP1 PUSH1 0x0 MSTORE PUSH1 0x20 PUSH1 0x0 KECCAK256 ADD SLOAD SUB PUSH2 0x2B6 JUMPI PUSH2 0x2B1 DUP4 DUP3 PUSH2 0x2C8 JUMP JUMPDEST POP POP POP JUMP JUMPDEST DUP1 PUSH2 0x2C0 DUP2 PUSH2 0x43C JUMP JUMPDEST SWAP2 POP POP PUSH2 0x27B JUMP JUMPDEST DUP2 SLOAD PUSH1 0x0 SWAP1 DUP4 SWAP1 PUSH2 0x2DB SWAP1 PUSH1 0x1 SWAP1 PUSH2 0x455 JUMP JUMPDEST DUP2 SLOAD DUP2 LT PUSH2 0x2EB JUMPI PUSH2 0x2EB PUSH2 0x410 JUMP JUMPDEST SWAP1 PUSH1 0x0 MSTORE PUSH1 0x20 PUSH1 0x0 KECCAK256 ADD SLOAD SWAP1 POP DUP3 DUP3 DUP2 SLOAD DUP2 LT PUSH2 0x30A JUMPI PUSH2 0x30A PUSH2 0x410 JUMP JUMPDEST SWAP1 PUSH1 0x0 MSTORE PUSH1 0x20 PUSH1 0x0 KECCAK256 ADD SLOAD DUP4 PUSH1 0x1 DUP6 DUP1 SLOAD SWAP1 POP PUSH2 0x327 SWAP2 SWAP1 PUSH2 0x455 JUMP JUMPDEST DUP2 SLOAD DUP2 LT PUSH2 0x337 JUMPI PUSH2 0x337 PUSH2 0x410 JUMP JUMPDEST SWAP1 PUSH1 0x0 MSTORE PUSH1 0x20 PUSH1 0x0 KECCAK256 ADD DUP2 SWAP1 SSTORE POP DUP1 DUP4 DUP4 DUP2 SLOAD DUP2 LT PUSH2 0x358 JUMPI PUSH2 0x358 PUSH2 0x410 JUMP JUMPDEST SWAP1 PUSH1 0x0 MSTORE PUSH1 0x20 PUSH1 0x0 KECCAK256 ADD DUP2 SWAP1 SSTORE POP DUP3 DUP1 SLOAD DUP1 PUSH2 0x376 JUMPI PUSH2 0x376 PUSH2 0x468 JUMP JUMPDEST PUSH1 0x1 SWAP1 SUB DUP2 DUP2 SWAP1 PUSH1 0x0 MSTORE PUSH1 0x20 PUSH1 0x0 KECCAK256 ADD PUSH1 0x0 SWAP1 SSTORE SWAP1 SSTORE POP POP POP JUMP JUMPDEST PUSH1 0x0 PUSH1 0x20 DUP3 DUP5 SUB SLT ISZERO PUSH2 0x3A3 JUMPI PUSH1 0x0 DUP1 REVERT JUMPDEST POP CALLDATALOAD SWAP2 SWAP1 POP JUMP JUMPDEST PUSH1 0x20 DUP1 DUP3 MSTORE DUP3 MLOAD DUP3 DUP3 ADD DUP2 SWAP1 MSTORE PUSH1 0x0 SWAP2 SWAP1 DUP5 DUP3 ADD SWAP1 PUSH1 0x40 DUP6 ADD SWAP1 DUP5 JUMPDEST DUP2 DUP2 LT ISZERO PUSH2 0x3E2 JUMPI DUP4 MLOAD DUP4 MSTORE SWAP3 DUP5 ADD SWAP3 SWAP2 DUP5 ADD SWAP2 PUSH1 0x1 ADD PUSH2 0x3C6 JUMP JUMPDEST POP SWAP1 SWAP7 SWAP6 POP POP POP POP POP POP JUMP JUMPDEST PUSH1 0x0 DUP1 PUSH1 0x40 DUP4 DUP6 SUB SLT ISZERO PUSH2 0x401 JUMPI PUSH1 0x0 DUP1 REVERT JUMPDEST POP POP DUP1 CALLDATALOAD SWAP3 PUSH1 0x20 SWAP1 SWAP2 ADD CALLDATALOAD SWAP2 POP JUMP JUMPDEST PUSH4 0x4E487B71 PUSH1 0xE0 SHL PUSH1 0x0 MSTORE PUSH1 0x32 PUSH1 0x4 MSTORE PUSH1 0x24 PUSH1 0x0 REVERT JUMPDEST PUSH4 0x4E487B71 PUSH1 0xE0 SHL PUSH1 0x0 MSTORE PUSH1 0x11 PUSH1 0x4 MSTORE PUSH1 0x24 PUSH1 0x0 REVERT JUMPDEST PUSH1 0x0 PUSH1 0x1 DUP3 ADD PUSH2 0x44E JUMPI PUSH2 0x44E PUSH2 0x426 JUMP JUMPDEST POP PUSH1 0x1 ADD SWAP1 JUMP JUMPDEST DUP2 DUP2 SUB DUP2 DUP2 GT ISZERO PUSH2 0x1F4 JUMPI PUSH2 0x1F4 PUSH2 0x426 JUMP JUMPDEST PUSH4 0x4E487B71 PUSH1 0xE0 SHL PUSH1 0x0 MSTORE PUSH1 0x31 PUSH1 0x4 MSTORE PUSH1 0x24 PUSH1 0x0 REVERT INVALID LOG2 PUSH5 0x6970667358 0x22 SLT KECCAK256 0xDC RETURN 0xED 0xDB 0xE7 0xA5 SELFDESTRUCT CALL DUP15 PUSH19 0x4A8DA86B0480473004AA148B59FC94E302475 CODESIZE 0xBE 0x25 PUSH5 0x736F6C6343 STOP ADDMOD SLT STOP CALLER ",
  "sha1": "7f525e70ddbcd63f6e40c9c050cf9eca8370dd9e",
  "source": "// SPDX-License-Identifier: MIT\n\npragma solidity ^0.8.0;\nimport \"./library/UintArray.sol\";\n\ncontract Resume_Recruiter {\n    using UintArray for uint[];\n    mapping(uint => uint[]) internal s_resumeToRecruiter;\n    mapping(uint => uint[]) internal s_recruiterToResume;\n\n    function connectResumeRecruiter(uint _recruiter, uint _resume) public {\n        s_resumeToRecruiter[_resume].push(_recruiter);\n        s_recruiterToResume[_recruiter].push(_resume);\n    }\n\n    function disconnectResumeRecruiter(uint _recruiter, uint _resume) public {\n        s_resumeToRecruiter[_resume].removeElement(_recruiter);\n        s_recruiterToResume[_recruiter].removeElement(_resume);\n    }\n\n    function isExistedResumeRecruiter(\n        uint _recruiter,\n        uint _resume\n    ) public view returns (bool) {\n        return s_resumeToRecruiter[_resume].isElementExisted(_recruiter);\n    }\n\n    function getRecruitersThruResume(\n        uint _resume\n    ) public view returns (uint[] memory) {\n        return s_resumeToRecruiter[_resume];\n    }\n\n    function getResumesThruRecruiter(\n        uint _recruiter\n    ) public view returns (uint[] memory) {\n        return s_recruiterToResume[_recruiter];\n    }\n}\n",
  "sourcePath": "contracts/Resume_Recruiter.sol",
  "type": "contract"
}