{
  "abi": [
    {
      "inputs": [
        {
          "internalType": "address",
          "name": "_userAddress",
          "type": "address"
        },
        {
          "internalType": "uint256",
          "name": "_type",
          "type": "uint256"
        }
      ],
      "name": "addUser",
      "outputs": [],
      "stateMutability": "nonpayable",
      "type": "function"
    },
    {
      "inputs": [
        {
          "internalType": "address",
          "name": "_userAddress",
          "type": "address"
        }
      ],
      "name": "deleteUser",
      "outputs": [],
      "stateMutability": "nonpayable",
      "type": "function"
    },
    {
      "inputs": [
        {
          "internalType": "address",
          "name": "_userAddress",
          "type": "address"
        }
      ],
      "name": "isExisted",
      "outputs": [
        {
          "internalType": "bool",
          "name": "",
          "type": "bool"
        },
        {
          "components": [
            {
              "internalType": "uint256",
              "name": "id",
              "type": "uint256"
            },
            {
              "internalType": "enum User.UserType",
              "name": "userType",
              "type": "uint8"
            },
            {
              "internalType": "bool",
              "name": "exist",
              "type": "bool"
            }
          ],
          "internalType": "struct User.AppUser",
          "name": "",
          "type": "tuple"
        }
      ],
      "stateMutability": "view",
      "type": "function"
    }
  ],
  "bytecode": "6080604052600060025534801561001557600080fd5b50610416806100256000396000f3fe608060405234801561001057600080fd5b50600436106100415760003560e01c80635c60f22614610046578063aaad0c8414610093578063d3017193146100bd575b600080fd5b610091610054366004610306565b6001600160a01b0316600081815260208181526040808320805484526001808452918420848155909101805461ffff191690559282528190529055565b005b6100a66100a1366004610306565b6100d0565b6040516100b492919061033e565b60405180910390f35b6100916100cb36600461038f565b610219565b604080516060810182526000808252602082018190529181018290526001600160a01b038316600090815260208181526040808320548084526001808452828520835160608101909452805484528082015492959490929084019160ff9091169081111561014057610140610328565b600181111561015157610151610328565b815260019190910154610100900460ff1615156020909101526040810151909150156101f157600082815260016020818152604092839020835160608101909452805484528083015492939092909183919083019060ff16858111156101b9576101b9610328565b60018111156101ca576101ca610328565b815260019190910154610100900460ff161515602090910152919791965090945050505050565b5050604080516060810182526000808252602082018190529181018290529094909350915050565b6002546001600160a01b03831660009081526020818152604091829020839055815160608101909252828252810183600181111561025957610259610328565b600181111561026a5761026a610328565b815260016020918201819052600084815281835260409020835181559183015182820180549192909160ff19169083818111156102a9576102a9610328565b021790555060409190910151600190910180549115156101000261ff0019909216919091179055600280549060006102e0836103b9565b9190505550505050565b80356001600160a01b038116811461030157600080fd5b919050565b60006020828403121561031857600080fd5b610321826102ea565b9392505050565b634e487b7160e01b600052602160045260246000fd5b600060808201905083151582528251602083015260208301516002811061037557634e487b7160e01b600052602160045260246000fd5b806040840152506040830151151560608301529392505050565b600080604083850312156103a257600080fd5b6103ab836102ea565b946020939093013593505050565b6000600182016103d957634e487b7160e01b600052601160045260246000fd5b506001019056fea2646970667358221220884f0c359141459840cbf7e4ead381a15cad6116266b9bd79d85ce8f34c0888b64736f6c63430008120033",
  "bytecodeSha1": "262ad1ea1c119f712094d69a42bdb44ae996b0f7",
  "compiler": {
    "evm_version": "istanbul",
    "optimizer": {
      "enabled": true,
      "runs": 200
    },
    "version": "0.8.18+commit.87f61d96"
  },
  "contractName": "User",
  "language": "Solidity",
  "natspec": {
    "kind": "dev",
    "methods": {},
    "version": 1
  },
  "opcodes": "PUSH1 0x80 PUSH1 0x40 MSTORE CALLVALUE DUP1 ISZERO PUSH2 0x10 JUMPI PUSH1 0x0 DUP1 REVERT JUMPDEST POP PUSH1 0x4 CALLDATASIZE LT PUSH2 0x41 JUMPI PUSH1 0x0 CALLDATALOAD PUSH1 0xE0 SHR DUP1 PUSH4 0x5C60F226 EQ PUSH2 0x46 JUMPI DUP1 PUSH4 0xAAAD0C84 EQ PUSH2 0x93 JUMPI DUP1 PUSH4 0xD3017193 EQ PUSH2 0xBD JUMPI JUMPDEST PUSH1 0x0 DUP1 REVERT JUMPDEST PUSH2 0x91 PUSH2 0x54 CALLDATASIZE PUSH1 0x4 PUSH2 0x306 JUMP JUMPDEST PUSH1 0x1 PUSH1 0x1 PUSH1 0xA0 SHL SUB AND PUSH1 0x0 DUP2 DUP2 MSTORE PUSH1 0x20 DUP2 DUP2 MSTORE PUSH1 0x40 DUP1 DUP4 KECCAK256 DUP1 SLOAD DUP5 MSTORE PUSH1 0x1 DUP1 DUP5 MSTORE SWAP2 DUP5 KECCAK256 DUP5 DUP2 SSTORE SWAP1 SWAP2 ADD DUP1 SLOAD PUSH2 0xFFFF NOT AND SWAP1 SSTORE SWAP3 DUP3 MSTORE DUP2 SWAP1 MSTORE SWAP1 SSTORE JUMP JUMPDEST STOP JUMPDEST PUSH2 0xA6 PUSH2 0xA1 CALLDATASIZE PUSH1 0x4 PUSH2 0x306 JUMP JUMPDEST PUSH2 0xD0 JUMP JUMPDEST PUSH1 0x40 MLOAD PUSH2 0xB4 SWAP3 SWAP2 SWAP1 PUSH2 0x33E JUMP JUMPDEST PUSH1 0x40 MLOAD DUP1 SWAP2 SUB SWAP1 RETURN JUMPDEST PUSH2 0x91 PUSH2 0xCB CALLDATASIZE PUSH1 0x4 PUSH2 0x38F JUMP JUMPDEST PUSH2 0x219 JUMP JUMPDEST PUSH1 0x40 DUP1 MLOAD PUSH1 0x60 DUP2 ADD DUP3 MSTORE PUSH1 0x0 DUP1 DUP3 MSTORE PUSH1 0x20 DUP3 ADD DUP2 SWAP1 MSTORE SWAP2 DUP2 ADD DUP3 SWAP1 MSTORE PUSH1 0x1 PUSH1 0x1 PUSH1 0xA0 SHL SUB DUP4 AND PUSH1 0x0 SWAP1 DUP2 MSTORE PUSH1 0x20 DUP2 DUP2 MSTORE PUSH1 0x40 DUP1 DUP4 KECCAK256 SLOAD DUP1 DUP5 MSTORE PUSH1 0x1 DUP1 DUP5 MSTORE DUP3 DUP6 KECCAK256 DUP4 MLOAD PUSH1 0x60 DUP2 ADD SWAP1 SWAP5 MSTORE DUP1 SLOAD DUP5 MSTORE DUP1 DUP3 ADD SLOAD SWAP3 SWAP6 SWAP5 SWAP1 SWAP3 SWAP1 DUP5 ADD SWAP2 PUSH1 0xFF SWAP1 SWAP2 AND SWAP1 DUP2 GT ISZERO PUSH2 0x140 JUMPI PUSH2 0x140 PUSH2 0x328 JUMP JUMPDEST PUSH1 0x1 DUP2 GT ISZERO PUSH2 0x151 JUMPI PUSH2 0x151 PUSH2 0x328 JUMP JUMPDEST DUP2 MSTORE PUSH1 0x1 SWAP2 SWAP1 SWAP2 ADD SLOAD PUSH2 0x100 SWAP1 DIV PUSH1 0xFF AND ISZERO ISZERO PUSH1 0x20 SWAP1 SWAP2 ADD MSTORE PUSH1 0x40 DUP2 ADD MLOAD SWAP1 SWAP2 POP ISZERO PUSH2 0x1F1 JUMPI PUSH1 0x0 DUP3 DUP2 MSTORE PUSH1 0x1 PUSH1 0x20 DUP2 DUP2 MSTORE PUSH1 0x40 SWAP3 DUP4 SWAP1 KECCAK256 DUP4 MLOAD PUSH1 0x60 DUP2 ADD SWAP1 SWAP5 MSTORE DUP1 SLOAD DUP5 MSTORE DUP1 DUP4 ADD SLOAD SWAP3 SWAP4 SWAP1 SWAP3 SWAP1 SWAP2 DUP4 SWAP2 SWAP1 DUP4 ADD SWAP1 PUSH1 0xFF AND DUP6 DUP2 GT ISZERO PUSH2 0x1B9 JUMPI PUSH2 0x1B9 PUSH2 0x328 JUMP JUMPDEST PUSH1 0x1 DUP2 GT ISZERO PUSH2 0x1CA JUMPI PUSH2 0x1CA PUSH2 0x328 JUMP JUMPDEST DUP2 MSTORE PUSH1 0x1 SWAP2 SWAP1 SWAP2 ADD SLOAD PUSH2 0x100 SWAP1 DIV PUSH1 0xFF AND ISZERO ISZERO PUSH1 0x20 SWAP1 SWAP2 ADD MSTORE SWAP2 SWAP8 SWAP2 SWAP7 POP SWAP1 SWAP5 POP POP POP POP POP JUMP JUMPDEST POP POP PUSH1 0x40 DUP1 MLOAD PUSH1 0x60 DUP2 ADD DUP3 MSTORE PUSH1 0x0 DUP1 DUP3 MSTORE PUSH1 0x20 DUP3 ADD DUP2 SWAP1 MSTORE SWAP2 DUP2 ADD DUP3 SWAP1 MSTORE SWAP1 SWAP5 SWAP1 SWAP4 POP SWAP2 POP POP JUMP JUMPDEST PUSH1 0x2 SLOAD PUSH1 0x1 PUSH1 0x1 PUSH1 0xA0 SHL SUB DUP4 AND PUSH1 0x0 SWAP1 DUP2 MSTORE PUSH1 0x20 DUP2 DUP2 MSTORE PUSH1 0x40 SWAP2 DUP3 SWAP1 KECCAK256 DUP4 SWAP1 SSTORE DUP2 MLOAD PUSH1 0x60 DUP2 ADD SWAP1 SWAP3 MSTORE DUP3 DUP3 MSTORE DUP2 ADD DUP4 PUSH1 0x1 DUP2 GT ISZERO PUSH2 0x259 JUMPI PUSH2 0x259 PUSH2 0x328 JUMP JUMPDEST PUSH1 0x1 DUP2 GT ISZERO PUSH2 0x26A JUMPI PUSH2 0x26A PUSH2 0x328 JUMP JUMPDEST DUP2 MSTORE PUSH1 0x1 PUSH1 0x20 SWAP2 DUP3 ADD DUP2 SWAP1 MSTORE PUSH1 0x0 DUP5 DUP2 MSTORE DUP2 DUP4 MSTORE PUSH1 0x40 SWAP1 KECCAK256 DUP4 MLOAD DUP2 SSTORE SWAP2 DUP4 ADD MLOAD DUP3 DUP3 ADD DUP1 SLOAD SWAP2 SWAP3 SWAP1 SWAP2 PUSH1 0xFF NOT AND SWAP1 DUP4 DUP2 DUP2 GT ISZERO PUSH2 0x2A9 JUMPI PUSH2 0x2A9 PUSH2 0x328 JUMP JUMPDEST MUL OR SWAP1 SSTORE POP PUSH1 0x40 SWAP2 SWAP1 SWAP2 ADD MLOAD PUSH1 0x1 SWAP1 SWAP2 ADD DUP1 SLOAD SWAP2 ISZERO ISZERO PUSH2 0x100 MUL PUSH2 0xFF00 NOT SWAP1 SWAP3 AND SWAP2 SWAP1 SWAP2 OR SWAP1 SSTORE PUSH1 0x2 DUP1 SLOAD SWAP1 PUSH1 0x0 PUSH2 0x2E0 DUP4 PUSH2 0x3B9 JUMP JUMPDEST SWAP2 SWAP1 POP SSTORE POP POP POP POP JUMP JUMPDEST DUP1 CALLDATALOAD PUSH1 0x1 PUSH1 0x1 PUSH1 0xA0 SHL SUB DUP2 AND DUP2 EQ PUSH2 0x301 JUMPI PUSH1 0x0 DUP1 REVERT JUMPDEST SWAP2 SWAP1 POP JUMP JUMPDEST PUSH1 0x0 PUSH1 0x20 DUP3 DUP5 SUB SLT ISZERO PUSH2 0x318 JUMPI PUSH1 0x0 DUP1 REVERT JUMPDEST PUSH2 0x321 DUP3 PUSH2 0x2EA JUMP JUMPDEST SWAP4 SWAP3 POP POP POP JUMP JUMPDEST PUSH4 0x4E487B71 PUSH1 0xE0 SHL PUSH1 0x0 MSTORE PUSH1 0x21 PUSH1 0x4 MSTORE PUSH1 0x24 PUSH1 0x0 REVERT JUMPDEST PUSH1 0x0 PUSH1 0x80 DUP3 ADD SWAP1 POP DUP4 ISZERO ISZERO DUP3 MSTORE DUP3 MLOAD PUSH1 0x20 DUP4 ADD MSTORE PUSH1 0x20 DUP4 ADD MLOAD PUSH1 0x2 DUP2 LT PUSH2 0x375 JUMPI PUSH4 0x4E487B71 PUSH1 0xE0 SHL PUSH1 0x0 MSTORE PUSH1 0x21 PUSH1 0x4 MSTORE PUSH1 0x24 PUSH1 0x0 REVERT JUMPDEST DUP1 PUSH1 0x40 DUP5 ADD MSTORE POP PUSH1 0x40 DUP4 ADD MLOAD ISZERO ISZERO PUSH1 0x60 DUP4 ADD MSTORE SWAP4 SWAP3 POP POP POP JUMP JUMPDEST PUSH1 0x0 DUP1 PUSH1 0x40 DUP4 DUP6 SUB SLT ISZERO PUSH2 0x3A2 JUMPI PUSH1 0x0 DUP1 REVERT JUMPDEST PUSH2 0x3AB DUP4 PUSH2 0x2EA JUMP JUMPDEST SWAP5 PUSH1 0x20 SWAP4 SWAP1 SWAP4 ADD CALLDATALOAD SWAP4 POP POP POP JUMP JUMPDEST PUSH1 0x0 PUSH1 0x1 DUP3 ADD PUSH2 0x3D9 JUMPI PUSH4 0x4E487B71 PUSH1 0xE0 SHL PUSH1 0x0 MSTORE PUSH1 0x11 PUSH1 0x4 MSTORE PUSH1 0x24 PUSH1 0x0 REVERT JUMPDEST POP PUSH1 0x1 ADD SWAP1 JUMP INVALID LOG2 PUSH5 0x6970667358 0x22 SLT KECCAK256 DUP9 0x4F 0xC CALLDATALOAD SWAP2 COINBASE GASLIMIT SWAP9 BLOCKHASH 0xCB 0xF7 0xE4 0xEA 0xD3 DUP2 LOG1 0x5C 0xAD PUSH2 0x1626 PUSH12 0x9BD79D85CE8F34C0888B6473 PUSH16 0x6C634300081200330000000000000000 ",
  "sha1": "108af724b03bc85960dd7e3cf0d48a73c9f19916",
  "source": "// SPDX-License-Identifier: MIT\n\npragma solidity ^0.8.0;\n\n// error User__AlreadyExisted();\n// error User__NotExisted();\n\ncontract User {\n    enum UserType {\n        RECRUITER,\n        CANDIDATE\n    }\n\n    struct AppUser {\n        uint id;\n        UserType userType;\n        bool exist;\n    }\n\n    mapping(address => uint) internal s_userIds;\n    mapping(uint => AppUser) internal s_users;\n    uint internal s_userCounter = 0;\n\n    function addUser(address _userAddress, uint _type) public {\n        // (bool b, ) = isExisted(_userAddress);\n        // if (b) revert User__AlreadyExisted();\n        uint _id = s_userCounter;\n        s_userIds[_userAddress] = _id;\n        s_users[_id] = AppUser(_id, UserType(_type), true);\n        s_userCounter++;\n    }\n\n    function deleteUser(address _userAddress) public {\n        // (bool b, ) = isExisted(_userAddress);\n        // if (!b) revert User__NotExisted();\n\n        uint id = s_userIds[_userAddress];\n        delete s_users[id];\n        delete s_userIds[_userAddress];\n    }\n\n    function isExisted(\n        address _userAddress\n    ) public view returns (bool, AppUser memory) {\n        uint id = s_userIds[_userAddress];\n        AppUser memory user = s_users[id];\n        if (user.exist) {\n            return (true, s_users[id]);\n        } else {\n            return (false, AppUser(0, UserType(0), false));\n        }\n    }\n}\n",
  "sourcePath": "contracts/User.sol",
  "type": "contract"
}